{
  "_format": "hh-sol-artifact-1",
  "contractName": "MarketplaceV1",
  "sourceName": "contracts/MarketplaceV1.sol",
  "abi": [
    {
      "inputs": [],
      "stateMutability": "nonpayable",
      "type": "constructor"
    },
    {
      "anonymous": false,
      "inputs": [
        {
          "indexed": false,
          "internalType": "uint8",
          "name": "version",
          "type": "uint8"
        }
      ],
      "name": "Initialized",
      "type": "event"
    },
    {
      "anonymous": false,
      "inputs": [
        {
          "indexed": true,
          "internalType": "address",
          "name": "previousOwner",
          "type": "address"
        },
        {
          "indexed": true,
          "internalType": "address",
          "name": "newOwner",
          "type": "address"
        }
      ],
      "name": "OwnershipTransferred",
      "type": "event"
    },
    {
      "anonymous": false,
      "inputs": [
        {
          "indexed": false,
          "internalType": "address",
          "name": "account",
          "type": "address"
        }
      ],
      "name": "Paused",
      "type": "event"
    },
    {
      "anonymous": false,
      "inputs": [
        {
          "indexed": true,
          "internalType": "address",
          "name": "previousPauser",
          "type": "address"
        },
        {
          "indexed": true,
          "internalType": "address",
          "name": "newPauser",
          "type": "address"
        }
      ],
      "name": "PauserTransferred",
      "type": "event"
    },
    {
      "anonymous": false,
      "inputs": [
        {
          "indexed": true,
          "internalType": "address",
          "name": "previousTreasury",
          "type": "address"
        },
        {
          "indexed": true,
          "internalType": "address",
          "name": "newTreasury",
          "type": "address"
        }
      ],
      "name": "TreasuryTransferred",
      "type": "event"
    },
    {
      "anonymous": false,
      "inputs": [
        {
          "indexed": false,
          "internalType": "address",
          "name": "account",
          "type": "address"
        }
      ],
      "name": "Unpaused",
      "type": "event"
    },
    {
      "anonymous": false,
      "inputs": [
        {
          "indexed": true,
          "internalType": "uint256",
          "name": "version",
          "type": "uint256"
        }
      ],
      "name": "VersionChanged",
      "type": "event"
    },
    {
      "inputs": [
        {
          "internalType": "bytes",
          "name": "content_",
          "type": "bytes"
        }
      ],
      "name": "generateIPFSCID",
      "outputs": [
        {
          "internalType": "bytes",
          "name": "",
          "type": "bytes"
        }
      ],
      "stateMutability": "pure",
      "type": "function"
    },
    {
      "inputs": [
        {
          "internalType": "address",
          "name": "treasury_",
          "type": "address"
        }
      ],
      "name": "initialize",
      "outputs": [],
      "stateMutability": "nonpayable",
      "type": "function"
    },
    {
      "inputs": [],
      "name": "owner",
      "outputs": [
        {
          "internalType": "address",
          "name": "",
          "type": "address"
        }
      ],
      "stateMutability": "view",
      "type": "function"
    },
    {
      "inputs": [],
      "name": "pause",
      "outputs": [],
      "stateMutability": "nonpayable",
      "type": "function"
    },
    {
      "inputs": [],
      "name": "paused",
      "outputs": [
        {
          "internalType": "bool",
          "name": "",
          "type": "bool"
        }
      ],
      "stateMutability": "view",
      "type": "function"
    },
    {
      "inputs": [],
      "name": "pauser",
      "outputs": [
        {
          "internalType": "address",
          "name": "",
          "type": "address"
        }
      ],
      "stateMutability": "view",
      "type": "function"
    },
    {
      "inputs": [],
      "name": "renounceOwnership",
      "outputs": [],
      "stateMutability": "nonpayable",
      "type": "function"
    },
    {
      "inputs": [
        {
          "internalType": "uint256",
          "name": "version_",
          "type": "uint256"
        }
      ],
      "name": "setVersion",
      "outputs": [],
      "stateMutability": "nonpayable",
      "type": "function"
    },
    {
      "inputs": [
        {
          "internalType": "address",
          "name": "to_",
          "type": "address"
        }
      ],
      "name": "transferOwnership",
      "outputs": [],
      "stateMutability": "nonpayable",
      "type": "function"
    },
    {
      "inputs": [
        {
          "internalType": "address",
          "name": "to_",
          "type": "address"
        }
      ],
      "name": "transferPauser",
      "outputs": [],
      "stateMutability": "nonpayable",
      "type": "function"
    },
    {
      "inputs": [
        {
          "internalType": "address",
          "name": "to_",
          "type": "address"
        }
      ],
      "name": "transferTreasury",
      "outputs": [],
      "stateMutability": "nonpayable",
      "type": "function"
    },
    {
      "inputs": [],
      "name": "treasury",
      "outputs": [
        {
          "internalType": "address",
          "name": "",
          "type": "address"
        }
      ],
      "stateMutability": "view",
      "type": "function"
    },
    {
      "inputs": [],
      "name": "unpause",
      "outputs": [],
      "stateMutability": "nonpayable",
      "type": "function"
    },
    {
      "inputs": [],
      "name": "version",
      "outputs": [
        {
          "internalType": "uint256",
          "name": "",
          "type": "uint256"
        }
      ],
      "stateMutability": "view",
      "type": "function"
    }
  ],
  "bytecode": "0x608060405234801561001057600080fd5b5061001961001e565b6100dd565b600054610100900460ff161561008a5760405162461bcd60e51b815260206004820152602760248201527f496e697469616c697a61626c653a20636f6e747261637420697320696e697469604482015266616c697a696e6760c81b606482015260840160405180910390fd5b60005460ff908116146100db576000805460ff191660ff9081179091556040519081527f7f26b83ff96e1f2b6a682f133852f6798a09c465da95921460cefb38474024989060200160405180910390a15b565b610db0806100ec6000396000f3fe608060405234801561001057600080fd5b50600436106100ea5760003560e01c8063715018a61161008c5780639fd0506d116100665780639fd0506d146101c1578063c4d66de8146101d4578063d8a6021c146101e7578063f2fde38b146101fa57600080fd5b8063715018a6146101a05780638456cb59146101a85780638da5cb5b146101b057600080fd5b80634421ea21116100c85780634421ea211461013557806354fd4d50146101485780635c975abb1461015f57806361d027b31461017557600080fd5b80633f4ba83a146100ef578063408def1e146100f957806340e8c56d1461010c575b600080fd5b6100f761020d565b005b6100f7610107366004610ac7565b610263565b61011f61011a366004610ae0565b61029e565b60405161012c9190610b76565b60405180910390f35b6100f7610143366004610ba9565b6102b1565b61015160995481565b60405190815260200161012c565b60655460ff16604051901515815260200161012c565b609754610188906001600160a01b031681565b6040516001600160a01b03909116815260200161012c565b6100f7610315565b6100f7610327565b6033546001600160a01b0316610188565b609854610188906001600160a01b031681565b6100f76101e2366004610ba9565b610376565b6100f76101f5366004610ba9565b6104b9565b6100f7610208366004610ba9565b61051d565b6098546001600160a01b031633146102595760405162461bcd60e51b815260206004820152600a6024820152693737ba103830bab9b2b960b11b60448201526064015b60405180910390fd5b610261610531565b565b61026b610583565b609981905560405181907f8c854a81cb5c93e7e482d30fb9c6f88fdbdb320f10f7a853c2263659b54e563f90600090a250565b60606102aa83836105dd565b9392505050565b6102b9610583565b6098546040516001600160a01b038084169216907f51c4874e0f23f262e04a38c51751336dde72126d67f53eb672aaff02996b3ef690600090a3609880546001600160a01b0319166001600160a01b0392909216919091179055565b61031d610583565b6102616000610712565b6098546001600160a01b0316331461036e5760405162461bcd60e51b815260206004820152600a6024820152693737ba103830bab9b2b960b11b6044820152606401610250565b610261610764565b600054610100900460ff16158080156103965750600054600160ff909116105b806103b05750303b1580156103b0575060005460ff166001145b6104135760405162461bcd60e51b815260206004820152602e60248201527f496e697469616c697a61626c653a20636f6e747261637420697320616c72656160448201526d191e481a5b9a5d1a585b1a5e995960921b6064820152608401610250565b6000805460ff191660011790558015610436576000805461ff0019166101001790555b61043e6107a1565b6104466107d0565b60988054336001600160a01b031991821617909155609780549091166001600160a01b03841617905580156104b5576000805461ff0019169055604051600181527f7f26b83ff96e1f2b6a682f133852f6798a09c465da95921460cefb38474024989060200160405180910390a15b5050565b6104c1610583565b6097546040516001600160a01b038084169216907febebcc22237fa047dcfebf54b185ec126c9b24d45f4bd2a18e4fa02e07308c4090600090a3609780546001600160a01b0319166001600160a01b0392909216919091179055565b610525610583565b61052e816107ff565b50565b610539610875565b6065805460ff191690557f5db9ee0a495bf2e6ff9c91a7834c1ba4fdd244a5e8aa4e537bd38aeae4b073aa335b6040516001600160a01b03909116815260200160405180910390a1565b6033546001600160a01b031633146102615760405162461bcd60e51b815260206004820181905260248201527f4f776e61626c653a2063616c6c6572206973206e6f7420746865206f776e65726044820152606401610250565b6060620100008211156106325760405162461bcd60e51b815260206004820152601f60248201527f4d617820636f6e74656e742073697a65206973203635353336206279746573006044820152606401610250565b600061063d836108be565b90506000818585846040516020016106589493929190610bd2565b6040516020818303038152906040529050600261067582516108be565b82604051602001610687929190610c29565b60408051601f19818403018152908290526106a191610c69565b602060405180830381855afa1580156106be573d6000803e3d6000fd5b5050506040513d601f19601f820116820180604052508101906106e19190610c85565b604051609160f51b602082015260228101919091526042016040516020818303038152906040529250505092915050565b603380546001600160a01b038381166001600160a01b0319831681179093556040519116919082907f8be0079c531659141344cd1fd0a4f28419497f9722a3daafe3b4186f6b6457e090600090a35050565b61076c610a1e565b6065805460ff191660011790557f62e78cea01bee320cd4e420270b5ea74000d11b0c9f74754ebdbfc544b05a2586105663390565b600054610100900460ff166107c85760405162461bcd60e51b815260040161025090610c9e565b610261610a64565b600054610100900460ff166107f75760405162461bcd60e51b815260040161025090610c9e565b610261610a94565b610807610583565b6001600160a01b03811661086c5760405162461bcd60e51b815260206004820152602660248201527f4f776e61626c653a206e6577206f776e657220697320746865207a65726f206160448201526564647265737360d01b6064820152608401610250565b61052e81610712565b60655460ff166102615760405162461bcd60e51b815260206004820152601460248201527314185d5cd8589b194e881b9bdd081c185d5cd95960621b6044820152606401610250565b60608160015b607f8267ffffffffffffffff1611156108f95760078267ffffffffffffffff16901c9150806108f290610cff565b90506108c4565b60008167ffffffffffffffff1667ffffffffffffffff81111561091e5761091e610d26565b6040519080825280601f01601f191660200182016040528015610948576020820181803683370190505b50905084925060005b8267ffffffffffffffff168167ffffffffffffffff1610156109ce5783607f1660801760f81b828267ffffffffffffffff168151811061099357610993610d3c565b60200101906001600160f81b031916908160001a90535060078467ffffffffffffffff16901c935080806109c690610cff565b915050610951565b50607f60f81b816109e0600185610d52565b67ffffffffffffffff16815181106109fa576109fa610d3c565b0160200180519091166001600160f81b03191690600082901a905350949350505050565b60655460ff16156102615760405162461bcd60e51b815260206004820152601060248201526f14185d5cd8589b194e881c185d5cd95960821b6044820152606401610250565b600054610100900460ff16610a8b5760405162461bcd60e51b815260040161025090610c9e565b61026133610712565b600054610100900460ff16610abb5760405162461bcd60e51b815260040161025090610c9e565b6065805460ff19169055565b600060208284031215610ad957600080fd5b5035919050565b60008060208385031215610af357600080fd5b823567ffffffffffffffff80821115610b0b57600080fd5b818501915085601f830112610b1f57600080fd5b813581811115610b2e57600080fd5b866020828501011115610b4057600080fd5b60209290920196919550909350505050565b60005b83811015610b6d578181015183820152602001610b55565b50506000910152565b6020815260008251806020840152610b95816040850160208701610b52565b601f01601f19169190910160400192915050565b600060208284031215610bbb57600080fd5b81356001600160a01b03811681146102aa57600080fd5b6204010960e91b81528451600090610bf1816003850160208a01610b52565b820184866003830137600360fb1b6003918601918201528351610c1b816004840160208801610b52565b016004019695505050505050565b600560f91b81528251600090610c46816001850160208801610b52565b835190830190610c5d816001840160208801610b52565b01600101949350505050565b60008251610c7b818460208701610b52565b9190910192915050565b600060208284031215610c9757600080fd5b5051919050565b6020808252602b908201527f496e697469616c697a61626c653a20636f6e7472616374206973206e6f74206960408201526a6e697469616c697a696e6760a81b606082015260800190565b634e487b7160e01b600052601160045260246000fd5b600067ffffffffffffffff808316818103610d1c57610d1c610ce9565b6001019392505050565b634e487b7160e01b600052604160045260246000fd5b634e487b7160e01b600052603260045260246000fd5b67ffffffffffffffff828116828216039080821115610d7357610d73610ce9565b509291505056fea26469706673582212204e5a128d34cba857ee76d5c7d09637a9d91901c888ba256a151e2722900d5a7064736f6c63430008130033",
  "linkReferences": {},
  "deployedLinkReferences": {}
}